{
  "contractName": "ZperMultiSigWallet",
  "abi": [
    {
      "constant": true,
      "inputs": [],
      "name": "totalCosigner",
      "outputs": [
        {
          "name": "",
          "type": "uint8"
        }
      ],
      "payable": false,
      "stateMutability": "view",
      "type": "function"
    },
    {
      "inputs": [
        {
          "name": "_cosigner",
          "type": "address[]"
        },
        {
          "name": "_minimum",
          "type": "uint8"
        }
      ],
      "payable": false,
      "stateMutability": "nonpayable",
      "type": "constructor"
    },
    {
      "payable": true,
      "stateMutability": "payable",
      "type": "fallback"
    },
    {
      "constant": false,
      "inputs": [
        {
          "name": "_newCosigner",
          "type": "address"
        }
      ],
      "name": "transferOwnership",
      "outputs": [],
      "payable": false,
      "stateMutability": "nonpayable",
      "type": "function"
    },
    {
      "constant": false,
      "inputs": [
        {
          "name": "_to",
          "type": "address"
        },
        {
          "name": "_amount",
          "type": "uint256"
        }
      ],
      "name": "transferFunds",
      "outputs": [],
      "payable": false,
      "stateMutability": "nonpayable",
      "type": "function"
    },
    {
      "constant": false,
      "inputs": [
        {
          "name": "_minimum",
          "type": "uint8"
        }
      ],
      "name": "changeMinimum",
      "outputs": [],
      "payable": false,
      "stateMutability": "nonpayable",
      "type": "function"
    },
    {
      "constant": false,
      "inputs": [
        {
          "name": "_newCosigner",
          "type": "address"
        }
      ],
      "name": "addCosigner",
      "outputs": [],
      "payable": false,
      "stateMutability": "nonpayable",
      "type": "function"
    },
    {
      "constant": false,
      "inputs": [
        {
          "name": "_cosigner",
          "type": "address"
        }
      ],
      "name": "deleteCosigner",
      "outputs": [],
      "payable": false,
      "stateMutability": "nonpayable",
      "type": "function"
    },
    {
      "constant": false,
      "inputs": [],
      "name": "voteFor",
      "outputs": [
        {
          "name": "",
          "type": "bool"
        }
      ],
      "payable": false,
      "stateMutability": "nonpayable",
      "type": "function"
    }
  ],
  "bytecode": "0x608060405234801561001057600080fd5b50604051610c48380380610c48833981018060405281019080805182019291906020018051906020019092919050505060008160ff1683511180610055575060028351145b8015610065575060028260ff1610155b151561007057600080fd5b600090505b82518110156100fa57600160026000858481518110151561009257fe5b9060200190602002015173ffffffffffffffffffffffffffffffffffffffff1673ffffffffffffffffffffffffffffffffffffffff16815260200190815260200160002060006101000a81548160ff0219169083151502179055508080600101915050610075565b82516000806101000a81548160ff021916908360ff16021790555081600060026101000a81548160ff021916908360ff16021790555060008060016101000a81548160ff021916908360ff1602179055506000600181905550505050610ae3806101656000396000f300608060405260043610610083576000357c0100000000000000000000000000000000000000000000000000000000900463ffffffff1680630d8609da146100855780636dbf1655146100c8578063990dc9db1461010b5780639d8ff47f14610158578063e0ff63f214610189578063f2fde38b146101b9578063ffaa3608146101fc575b005b34801561009157600080fd5b506100c6600480360381019080803573ffffffffffffffffffffffffffffffffffffffff16906020019092919050505061022b565b005b3480156100d457600080fd5b50610109600480360381019080803573ffffffffffffffffffffffffffffffffffffffff1690602001909291905050506102b4565b005b34801561011757600080fd5b50610156600480360381019080803573ffffffffffffffffffffffffffffffffffffffff1690602001909291908035906020019092919050505061031c565b005b34801561016457600080fd5b5061016d610384565b604051808260ff1660ff16815260200191505060405180910390f35b34801561019557600080fd5b506101b7600480360381019080803560ff169060200190929190505050610396565b005b3480156101c557600080fd5b506101fa600480360381019080803573ffffffffffffffffffffffffffffffffffffffff16906020019092919050505061045e565b005b34801561020857600080fd5b50610211610569565b604051808215151515815260200191505060405180910390f35b600260003373ffffffffffffffffffffffffffffffffffffffff1673ffffffffffffffffffffffffffffffffffffffff16815260200190815260200160002060009054906101000a900460ff16151561028357600080fd5b60036000809054906101000a900460ff1660ff16101515156102a457600080fd5b6102b1600482600061099c565b50565b600260003373ffffffffffffffffffffffffffffffffffffffff1673ffffffffffffffffffffffffffffffffffffffff16815260200190815260200160002060009054906101000a900460ff16151561030c57600080fd5b610319600382600061099c565b50565b600260003373ffffffffffffffffffffffffffffffffffffffff1673ffffffffffffffffffffffffffffffffffffffff16815260200190815260200160002060009054906101000a900460ff16151561037457600080fd5b6103806001838361099c565b5050565b6000809054906101000a900460ff1681565b600260003373ffffffffffffffffffffffffffffffffffffffff1673ffffffffffffffffffffffffffffffffffffffff16815260200190815260200160002060009054906101000a900460ff1615156103ee57600080fd5b60028160ff161015801561044057506000809054906101000a900460ff1660ff168160ff16108061043f575060026000809054906101000a900460ff1660ff1614801561043e575060028160ff16145b5b5b151561044b57600080fd5b61045b600260008360ff1661099c565b50565b600260003373ffffffffffffffffffffffffffffffffffffffff1673ffffffffffffffffffffffffffffffffffffffff16815260200190815260200160002060009054906101000a900460ff1615156104b657600080fd5b6000600260003373ffffffffffffffffffffffffffffffffffffffff1673ffffffffffffffffffffffffffffffffffffffff16815260200190815260200160002060006101000a81548160ff0219169083151502179055506001600260008373ffffffffffffffffffffffffffffffffffffffff1673ffffffffffffffffffffffffffffffffffffffff16815260200190815260200160002060006101000a81548160ff02191690831515021790555050565b6000600260003373ffffffffffffffffffffffffffffffffffffffff1673ffffffffffffffffffffffffffffffffffffffff16815260200190815260200160002060009054906101000a900460ff1615156105c357600080fd5b60008060019054906101000a900460ff1660ff161115156105e357600080fd5b600154600360003373ffffffffffffffffffffffffffffffffffffffff1673ffffffffffffffffffffffffffffffffffffffff168152602001908152602001600020541115151561063357600080fd5b6000600181819054906101000a900460ff168092919060010191906101000a81548160ff021916908360ff160217905550506001805401600360003373ffffffffffffffffffffffffffffffffffffffff1673ffffffffffffffffffffffffffffffffffffffff16815260200190815260200160002081905550600060029054906101000a900460ff1660ff16600060019054906101000a900460ff1660ff16101515610999576001600460009054906101000a900460ff1660ff16141561076557600460019054906101000a900473ffffffffffffffffffffffffffffffffffffffff1673ffffffffffffffffffffffffffffffffffffffff166108fc6005549081150290604051600060405180830381858888f1935050505015801561075f573d6000803e3d6000fd5b50610990565b6002600460009054906101000a900460ff1660ff1614156107a257600554600060026101000a81548160ff021916908360ff16021790555061098f565b6003600460009054906101000a900460ff1660ff16141561086d57600160026000600460019054906101000a900473ffffffffffffffffffffffffffffffffffffffff1673ffffffffffffffffffffffffffffffffffffffff1673ffffffffffffffffffffffffffffffffffffffff16815260200190815260200160002060006101000a81548160ff02191690831515021790555060008081819054906101000a900460ff168092919060010191906101000a81548160ff021916908360ff1602179055505061098e565b60048060009054906101000a900460ff1660ff16141561098d57600060026000600460019054906101000a900473ffffffffffffffffffffffffffffffffffffffff1673ffffffffffffffffffffffffffffffffffffffff1673ffffffffffffffffffffffffffffffffffffffff16815260200190815260200160002060006101000a81548160ff02191690831515021790555060008081819054906101000a900460ff16809291906001900391906101000a81548160ff021916908360ff16021790555050600060029054906101000a900460ff1660ff166000809054906101000a900460ff1660ff1611151561098c5760016000809054906101000a900460ff1603600060026101000a81548160ff021916908360ff1602179055505b5b5b5b5b610998610a88565b5b90565b60008060019054906101000a900460ff1660ff161415156109bc57600080fd5b82600460006101000a81548160ff021916908360ff16021790555081600460016101000a81548173ffffffffffffffffffffffffffffffffffffffff021916908373ffffffffffffffffffffffffffffffffffffffff160217905550806005819055506001600060016101000a81548160ff021916908360ff1602179055506001805401600360003373ffffffffffffffffffffffffffffffffffffffff1673ffffffffffffffffffffffffffffffffffffffff16815260200190815260200160002081905550505050565b60008060016101000a81548160ff021916908360ff1602179055506001600081548092919060010191905055505600a165627a7a72305820e0dcb2258660f93e499787c8df754069b06a321ea3436c4193da166195367e4f0029",
  "source": "pragma solidity^0.4.21;\n\ncontract ZperMultiSigWallet {\n\n\tuint8 public\ttotalCosigner;\n\tuint8 private\tvotedFor;\n\tuint8 private\tminimum;\n\tuint256 private lastVoteNo;\n\n\tmapping (address => bool) internal cosigner;\n\tmapping (address => uint256) internal vote;\n\n\tuint8 private transactionType; \n\taddress private transactionTo;\n\tuint256 private amount;\n\t// 1: transfer ETH\n\t// 2: change minimum\n\t// 3: add cosigner\n\t// 4: delete cosigner\n\n\tmodifier onlyCosigner() {\n\t\trequire(cosigner[msg.sender]);\n\t\t_;\n\t}\n\n\tconstructor (address[] _cosigner, uint8 _minimum) public {\n\t\trequire((_cosigner.length > _minimum  || _cosigner.length == 2) && _minimum >= 2);\n\t\tfor(uint256 i = 0; i < _cosigner.length; i++){\n\t\t\tcosigner[_cosigner[i]] = true;\n\t\t}\n\n\t\ttotalCosigner = uint8(_cosigner.length);\n\t\tminimum = _minimum;\n\t\tvotedFor = 0;\n\t\tlastVoteNo = 0;\n\t}\n\n\tfunction () external payable {\n\t}\n\n\tfunction initiateVote(uint8 _type, address _to, uint256 _amount) internal {\n\t\trequire(votedFor == 0);\n\n\t\ttransactionType = _type;\n\t\ttransactionTo = _to;\n\t\tamount = _amount;\n\n\t\tvotedFor = 1;\n\t\tvote[msg.sender] = lastVoteNo + 1;\n\t}\n\n\tfunction transferOwnership (address _newCosigner) onlyCosigner public {\n\t\tcosigner[msg.sender] = false;\n\t\tcosigner[_newCosigner] = true;\n\t}\n\t\n\tfunction transferFunds (address _to, uint256 _amount) onlyCosigner external {\n\t\tinitiateVote(1, _to, _amount);\n\t}\n\tfunction changeMinimum (uint8 _minimum) onlyCosigner external {\n\t\trequire(_minimum >= 2 && \n\t\t\t\t(_minimum < totalCosigner || (totalCosigner == 2 && _minimum == 2)));\n\t\tinitiateVote(2, address(0), uint256(_minimum));\n\t}\n\n\tfunction addCosigner (address _newCosigner) onlyCosigner external {\n\t\tinitiateVote(3, _newCosigner, 0);\n\t}\n\n\tfunction deleteCosigner (address _cosigner) onlyCosigner external {\n\t\trequire(totalCosigner >= 3);\n\t\tinitiateVote(4, _cosigner, 0);\n\t}\n\n\tfunction voteFor() onlyCosigner public returns(bool) {\n\t\trequire(votedFor > 0);\n\t\trequire(vote[msg.sender] <= lastVoteNo);\n\n\t\tvotedFor++;\n\t\tvote[msg.sender] = lastVoteNo + 1;\n\n\t\tif(votedFor >= minimum) {\n\t\t\tif(transactionType == 1) {\t\t\t\t\t\t// transfer funds\n\t\t\t\ttransactionTo.transfer(amount);\n\t\t\t}\n\t\t\telse if (transactionType == 2) {\t\t\t\t// change minimum\n\t\t\t\tminimum = uint8(amount);\n\t\t\t}\n\t\t\telse if (transactionType == 3) {\t\t\t\t// add cosigner\n\t\t\t\tcosigner[transactionTo] = true;\n\t\t\t\ttotalCosigner++;\n\t\t\t}\n\t\t\telse if (transactionType == 4) {\t\t\t\t// delete cosigner\n\t\t\t\tcosigner[transactionTo] = false;\n\t\t\t\ttotalCosigner--;\n\t\t\t\tif(totalCosigner <= minimum)\n\t\t\t\t\tminimum = totalCosigner - 1;\n\t\t\t}\n\t\t\ttxFinished();\n\t\t}\n\t}\n\n\t// must be included in transaction function's end\n\tfunction txFinished() internal {\n\t\tvotedFor = 0;\n\t\tlastVoteNo++;\n\t}\n\n}\n",
  "sourcePath": "/home/zperdev/repo/TokennSalenTools/wallet/contracts/ZperMultiSigWallet.sol",
  "compiler": {
    "name": "solc",
    "version": "0.4.23+commit.124ca40d.Emscripten.clang"
  },
  "schemaVersion": "2.0.0",
  "updatedAt": "2018-04-27T03:51:21.810Z"
}