{
  "contractName": "ZperMultiSigWallet",
  "abi": [
    {
      "constant": true,
      "inputs": [],
      "name": "minimum",
      "outputs": [
        {
          "name": "",
          "type": "uint8"
        }
      ],
      "payable": false,
      "stateMutability": "view",
      "type": "function"
    },
    {
      "constant": true,
      "inputs": [
        {
          "name": "",
          "type": "address"
        }
      ],
      "name": "vote",
      "outputs": [
        {
          "name": "",
          "type": "uint256"
        }
      ],
      "payable": false,
      "stateMutability": "view",
      "type": "function"
    },
    {
      "constant": true,
      "inputs": [
        {
          "name": "",
          "type": "address"
        }
      ],
      "name": "cosigner",
      "outputs": [
        {
          "name": "",
          "type": "bool"
        }
      ],
      "payable": false,
      "stateMutability": "view",
      "type": "function"
    },
    {
      "constant": true,
      "inputs": [],
      "name": "votedFor",
      "outputs": [
        {
          "name": "",
          "type": "uint8"
        }
      ],
      "payable": false,
      "stateMutability": "view",
      "type": "function"
    },
    {
      "constant": true,
      "inputs": [],
      "name": "totalCosigner",
      "outputs": [
        {
          "name": "",
          "type": "uint8"
        }
      ],
      "payable": false,
      "stateMutability": "view",
      "type": "function"
    },
    {
      "constant": true,
      "inputs": [],
      "name": "lastVoteNo",
      "outputs": [
        {
          "name": "",
          "type": "uint256"
        }
      ],
      "payable": false,
      "stateMutability": "view",
      "type": "function"
    },
    {
      "inputs": [
        {
          "name": "_cosigner",
          "type": "address[]"
        },
        {
          "name": "_minimum",
          "type": "uint8"
        }
      ],
      "payable": false,
      "stateMutability": "nonpayable",
      "type": "constructor"
    },
    {
      "payable": true,
      "stateMutability": "payable",
      "type": "fallback"
    },
    {
      "anonymous": false,
      "inputs": [
        {
          "indexed": false,
          "name": "txtype",
          "type": "uint8"
        },
        {
          "indexed": false,
          "name": "to",
          "type": "address"
        },
        {
          "indexed": false,
          "name": "amount",
          "type": "uint256"
        }
      ],
      "name": "InitiateVote",
      "type": "event"
    },
    {
      "anonymous": false,
      "inputs": [
        {
          "indexed": false,
          "name": "owner",
          "type": "address"
        }
      ],
      "name": "VoteCanceled",
      "type": "event"
    },
    {
      "anonymous": false,
      "inputs": [
        {
          "indexed": false,
          "name": "txtype",
          "type": "uint8"
        },
        {
          "indexed": false,
          "name": "to",
          "type": "address"
        },
        {
          "indexed": false,
          "name": "amount",
          "type": "uint256"
        }
      ],
      "name": "VoteAccomplished",
      "type": "event"
    },
    {
      "constant": false,
      "inputs": [],
      "name": "cancelVote",
      "outputs": [],
      "payable": false,
      "stateMutability": "nonpayable",
      "type": "function"
    },
    {
      "constant": false,
      "inputs": [
        {
          "name": "_newCosigner",
          "type": "address"
        }
      ],
      "name": "transferOwnership",
      "outputs": [],
      "payable": false,
      "stateMutability": "nonpayable",
      "type": "function"
    },
    {
      "constant": false,
      "inputs": [
        {
          "name": "_to",
          "type": "address"
        },
        {
          "name": "_amount",
          "type": "uint256"
        }
      ],
      "name": "transferFunds",
      "outputs": [],
      "payable": false,
      "stateMutability": "nonpayable",
      "type": "function"
    },
    {
      "constant": false,
      "inputs": [
        {
          "name": "_minimum",
          "type": "uint8"
        }
      ],
      "name": "changeMinimum",
      "outputs": [],
      "payable": false,
      "stateMutability": "nonpayable",
      "type": "function"
    },
    {
      "constant": false,
      "inputs": [
        {
          "name": "_newCosigner",
          "type": "address"
        }
      ],
      "name": "addCosigner",
      "outputs": [],
      "payable": false,
      "stateMutability": "nonpayable",
      "type": "function"
    },
    {
      "constant": false,
      "inputs": [
        {
          "name": "_cosigner",
          "type": "address"
        }
      ],
      "name": "deleteCosigner",
      "outputs": [],
      "payable": false,
      "stateMutability": "nonpayable",
      "type": "function"
    },
    {
      "constant": false,
      "inputs": [],
      "name": "voteFor",
      "outputs": [
        {
          "name": "",
          "type": "bool"
        }
      ],
      "payable": false,
      "stateMutability": "nonpayable",
      "type": "function"
    }
  ],
  "bytecode": "0x608060405234801561001057600080fd5b50604051611151380380611151833981018060405281019080805182019291906020018051906020019092919050505060008160ff1683511180610055575060028351145b8015610065575060028260ff1610155b151561007057600080fd5b600090505b82518110156100fa57600160026000858481518110151561009257fe5b9060200190602002015173ffffffffffffffffffffffffffffffffffffffff1673ffffffffffffffffffffffffffffffffffffffff16815260200190815260200160002060006101000a81548160ff0219169083151502179055508080600101915050610075565b82516000806101000a81548160ff021916908360ff16021790555081600060026101000a81548160ff021916908360ff16021790555060008060016101000a81548160ff021916908360ff1602179055506000600181905550505050610fec806101656000396000f3006080604052600436106100c5576000357c0100000000000000000000000000000000000000000000000000000000900463ffffffff1680630d8609da146100c757806352d6804d1461010a5780636dbf16551461013b5780636dd7d8ea1461017e57806390a3a5aa146101d5578063941fb21f1461023057806395c9655414610261578063990dc9db146102785780639d8ff47f146102c5578063e0ff63f2146102f6578063f2fde38b14610326578063f8e16c1f14610369578063ffaa360814610394575b005b3480156100d357600080fd5b50610108600480360381019080803573ffffffffffffffffffffffffffffffffffffffff1690602001909291905050506103c3565b005b34801561011657600080fd5b5061011f6104ab565b604051808260ff1660ff16815260200191505060405180910390f35b34801561014757600080fd5b5061017c600480360381019080803573ffffffffffffffffffffffffffffffffffffffff1690602001909291905050506104be565b005b34801561018a57600080fd5b506101bf600480360381019080803573ffffffffffffffffffffffffffffffffffffffff169060200190929190505050610585565b6040518082815260200191505060405180910390f35b3480156101e157600080fd5b50610216600480360381019080803573ffffffffffffffffffffffffffffffffffffffff16906020019092919050505061059d565b604051808215151515815260200191505060405180910390f35b34801561023c57600080fd5b506102456105bd565b604051808260ff1660ff16815260200191505060405180910390f35b34801561026d57600080fd5b506102766105d0565b005b34801561028457600080fd5b506102c3600480360381019080803573ffffffffffffffffffffffffffffffffffffffff169060200190929190803590602001909291905050506106b9565b005b3480156102d157600080fd5b506102da610721565b604051808260ff1660ff16815260200191505060405180910390f35b34801561030257600080fd5b50610324600480360381019080803560ff169060200190929190505050610733565b005b34801561033257600080fd5b50610367600480360381019080803573ffffffffffffffffffffffffffffffffffffffff1690602001909291905050506107fb565b005b34801561037557600080fd5b5061037e610906565b6040518082815260200191505060405180910390f35b3480156103a057600080fd5b506103a961090c565b604051808215151515815260200191505060405180910390f35b600260003373ffffffffffffffffffffffffffffffffffffffff1673ffffffffffffffffffffffffffffffffffffffff16815260200190815260200160002060009054906101000a900460ff16151561041b57600080fd5b60036000809054906101000a900460ff1660ff161015151561043c57600080fd5b60011515600260008373ffffffffffffffffffffffffffffffffffffffff1673ffffffffffffffffffffffffffffffffffffffff16815260200190815260200160002060009054906101000a900460ff16151514151561049b57600080fd5b6104a86004826000610deb565b50565b600060029054906101000a900460ff1681565b600260003373ffffffffffffffffffffffffffffffffffffffff1673ffffffffffffffffffffffffffffffffffffffff16815260200190815260200160002060009054906101000a900460ff16151561051657600080fd5b60001515600260008373ffffffffffffffffffffffffffffffffffffffff1673ffffffffffffffffffffffffffffffffffffffff16815260200190815260200160002060009054906101000a900460ff16151514151561057557600080fd5b6105826003826000610deb565b50565b60036020528060005260406000206000915090505481565b60026020528060005260406000206000915054906101000a900460ff1681565b600060019054906101000a900460ff1681565b60008060019054906101000a900460ff1660ff161115156105f057600080fd5b3373ffffffffffffffffffffffffffffffffffffffff16600660009054906101000a900473ffffffffffffffffffffffffffffffffffffffff1673ffffffffffffffffffffffffffffffffffffffff1614151561064c57600080fd5b7f2fac429e887c05dcf354356a3a2a2b1c368e1400df72ae9c1f07aed432061cb433604051808273ffffffffffffffffffffffffffffffffffffffff1673ffffffffffffffffffffffffffffffffffffffff16815260200191505060405180910390a16106b7610f91565b565b600260003373ffffffffffffffffffffffffffffffffffffffff1673ffffffffffffffffffffffffffffffffffffffff16815260200190815260200160002060009054906101000a900460ff16151561071157600080fd5b61071d60018383610deb565b5050565b6000809054906101000a900460ff1681565b600260003373ffffffffffffffffffffffffffffffffffffffff1673ffffffffffffffffffffffffffffffffffffffff16815260200190815260200160002060009054906101000a900460ff16151561078b57600080fd5b60028160ff16101580156107dd57506000809054906101000a900460ff1660ff168160ff1610806107dc575060026000809054906101000a900460ff1660ff161480156107db575060028160ff16145b5b5b15156107e857600080fd5b6107f8600260008360ff16610deb565b50565b600260003373ffffffffffffffffffffffffffffffffffffffff1673ffffffffffffffffffffffffffffffffffffffff16815260200190815260200160002060009054906101000a900460ff16151561085357600080fd5b6000600260003373ffffffffffffffffffffffffffffffffffffffff1673ffffffffffffffffffffffffffffffffffffffff16815260200190815260200160002060006101000a81548160ff0219169083151502179055506001600260008373ffffffffffffffffffffffffffffffffffffffff1673ffffffffffffffffffffffffffffffffffffffff16815260200190815260200160002060006101000a81548160ff02191690831515021790555050565b60015481565b6000600260003373ffffffffffffffffffffffffffffffffffffffff1673ffffffffffffffffffffffffffffffffffffffff16815260200190815260200160002060009054906101000a900460ff16151561096657600080fd5b60008060019054906101000a900460ff1660ff1611151561098657600080fd5b600154600360003373ffffffffffffffffffffffffffffffffffffffff1673ffffffffffffffffffffffffffffffffffffffff16815260200190815260200160002054111515156109d657600080fd5b6000600181819054906101000a900460ff168092919060010191906101000a81548160ff021916908360ff160217905550506001805401600360003373ffffffffffffffffffffffffffffffffffffffff1673ffffffffffffffffffffffffffffffffffffffff16815260200190815260200160002081905550600060029054906101000a900460ff1660ff16600060019054906101000a900460ff1660ff16101515610de8576001600460009054906101000a900460ff1660ff161415610b0857600460019054906101000a900473ffffffffffffffffffffffffffffffffffffffff1673ffffffffffffffffffffffffffffffffffffffff166108fc6005549081150290604051600060405180830381858888f19350505050158015610b02573d6000803e3d6000fd5b50610d33565b6002600460009054906101000a900460ff1660ff161415610b4557600554600060026101000a81548160ff021916908360ff160217905550610d32565b6003600460009054906101000a900460ff1660ff161415610c1057600160026000600460019054906101000a900473ffffffffffffffffffffffffffffffffffffffff1673ffffffffffffffffffffffffffffffffffffffff1673ffffffffffffffffffffffffffffffffffffffff16815260200190815260200160002060006101000a81548160ff02191690831515021790555060008081819054906101000a900460ff168092919060010191906101000a81548160ff021916908360ff16021790555050610d31565b60048060009054906101000a900460ff1660ff161415610d3057600060026000600460019054906101000a900473ffffffffffffffffffffffffffffffffffffffff1673ffffffffffffffffffffffffffffffffffffffff1673ffffffffffffffffffffffffffffffffffffffff16815260200190815260200160002060006101000a81548160ff02191690831515021790555060008081819054906101000a900460ff16809291906001900391906101000a81548160ff021916908360ff16021790555050600060029054906101000a900460ff1660ff166000809054906101000a900460ff1660ff16111515610d2f5760016000809054906101000a900460ff1603600060026101000a81548160ff021916908360ff1602179055505b5b5b5b5b610d3b610f91565b7f0bdafec54869326d17507af1e6ae8b2e83905923e445d2759ec89c41e3735a34600460009054906101000a900460ff16600460019054906101000a900473ffffffffffffffffffffffffffffffffffffffff16600554604051808460ff1660ff1681526020018373ffffffffffffffffffffffffffffffffffffffff1673ffffffffffffffffffffffffffffffffffffffff168152602001828152602001935050505060405180910390a15b90565b60008060019054906101000a900460ff1660ff16141515610e0b57600080fd5b82600460006101000a81548160ff021916908360ff16021790555081600460016101000a81548173ffffffffffffffffffffffffffffffffffffffff021916908373ffffffffffffffffffffffffffffffffffffffff1602179055508060058190555033600660006101000a81548173ffffffffffffffffffffffffffffffffffffffff021916908373ffffffffffffffffffffffffffffffffffffffff1602179055506001600060016101000a81548160ff021916908360ff1602179055506001805401600360003373ffffffffffffffffffffffffffffffffffffffff1673ffffffffffffffffffffffffffffffffffffffff168152602001908152602001600020819055507f29e45fc40d350d9b51e9647ca2e22fa3e698e760898a01b4fb016dfabe9ad08b838383604051808460ff1660ff1681526020018373ffffffffffffffffffffffffffffffffffffffff1673ffffffffffffffffffffffffffffffffffffffff168152602001828152602001935050505060405180910390a1505050565b60008060016101000a81548160ff021916908360ff1602179055506001600081548092919060010191905055505600a165627a7a72305820d32b26f4f2fc46c2af4b6251db09457860055a6ca02a8a33484d83b753a839b10029",
  "source": "pragma solidity^0.4.21;\n\ncontract ZperMultiSigWallet {\n\n\tuint8 public\ttotalCosigner;\n\tuint8 public\tvotedFor;\n\tuint8 public\tminimum;\n\tuint256 public lastVoteNo;\n\n\tmapping (address => bool) public cosigner;\n\tmapping (address => uint256) public vote;\n\n\tuint8 private transactionType; \n\taddress private transactionTo;\n\tuint256 private amount;\n\n\taddress private voteOwner;\n\t// 1: transfer ETH\n\t// 2: change minimum\n\t// 3: add cosigner\n\t// 4: delete cosigner\n\n\tevent InitiateVote(uint8 txtype, address to, uint256 amount);\n\tevent VoteCanceled(address owner);\n\tevent VoteAccomplished(uint8 txtype, address to, uint256 amount);\n\n\tmodifier onlyCosigner() {\n\t\trequire(cosigner[msg.sender]);\n\t\t_;\n\t}\n\n\tconstructor (address[] _cosigner, uint8 _minimum) public {\n\t\trequire((_cosigner.length > _minimum  || _cosigner.length == 2) && _minimum >= 2);\n\t\tfor(uint256 i = 0; i < _cosigner.length; i++){\n\t\t\tcosigner[_cosigner[i]] = true;\n\t\t}\n\n\t\ttotalCosigner = uint8(_cosigner.length);\n\t\tminimum = _minimum;\n\t\tvotedFor = 0;\n\t\tlastVoteNo = 0;\n\t}\n\n\tfunction () external payable {\n\t}\n\n\tfunction initiateVote(uint8 _type, address _to, uint256 _amount) internal {\n\t\trequire(votedFor == 0);\n\n\t\ttransactionType = _type;\n\t\ttransactionTo = _to;\n\t\tamount = _amount;\n\t\tvoteOwner = msg.sender;\n\n\t\tvotedFor = 1;\n\t\tvote[msg.sender] = lastVoteNo + 1;\n\t\temit InitiateVote(_type, _to, _amount);\n\t}\n\n\tfunction cancelVote() public {\n\t\trequire(votedFor > 0);\n\t\trequire(voteOwner == msg.sender);\n\n\t\temit VoteCanceled(msg.sender);\n\n\t\ttxFinished();\n\t}\n\n\n\tfunction transferOwnership (address _newCosigner) onlyCosigner public {\n\t\tcosigner[msg.sender] = false;\n\t\tcosigner[_newCosigner] = true;\n\t}\n\t\n\tfunction transferFunds (address _to, uint256 _amount) onlyCosigner external {\n\t\tinitiateVote(1, _to, _amount);\n\t}\n\tfunction changeMinimum (uint8 _minimum) onlyCosigner external {\n\t\trequire(_minimum >= 2 && \n\t\t\t\t(_minimum < totalCosigner || (totalCosigner == 2 && _minimum == 2)));\n\t\tinitiateVote(2, address(0), uint256(_minimum));\n\t}\n\n\tfunction addCosigner (address _newCosigner) onlyCosigner external {\n\t\trequire(cosigner[_newCosigner] == false);\n\t\tinitiateVote(3, _newCosigner, 0);\n\t}\n\n\tfunction deleteCosigner (address _cosigner) onlyCosigner external {\n\t\trequire(totalCosigner >= 3);\n\t\trequire(cosigner[_cosigner] == true);\n\t\tinitiateVote(4, _cosigner, 0);\n\t}\n\n\tfunction voteFor() onlyCosigner public returns(bool) {\n\t\trequire(votedFor > 0);\n\t\trequire(vote[msg.sender] <= lastVoteNo);\n\n\t\tvotedFor++;\n\t\tvote[msg.sender] = lastVoteNo + 1;\n\n\t\tif(votedFor >= minimum) {\n\t\t\tif(transactionType == 1) {\t\t\t\t\t\t// transfer funds\n\t\t\t\ttransactionTo.transfer(amount);\n\t\t\t}\n\t\t\telse if (transactionType == 2) {\t\t\t\t// change minimum\n\t\t\t\tminimum = uint8(amount);\n\t\t\t}\n\t\t\telse if (transactionType == 3) {\t\t\t\t// add cosigner\n\t\t\t\tcosigner[transactionTo] = true;\n\t\t\t\ttotalCosigner++;\n\t\t\t}\n\t\t\telse if (transactionType == 4) {\t\t\t\t// delete cosigner\n\t\t\t\tcosigner[transactionTo] = false;\n\t\t\t\ttotalCosigner--;\n\t\t\t\tif(totalCosigner <= minimum)\n\t\t\t\t\tminimum = totalCosigner - 1;\n\t\t\t}\n\t\t\ttxFinished();\n\t\t\temit VoteAccomplished(transactionType, transactionTo, amount);\n\t\t}\n\t}\n\n\t// must be included in transaction function's end\n\tfunction txFinished() internal {\n\t\tvotedFor = 0;\n\t\tlastVoteNo++;\n\t}\n\n}\n",
  "sourcePath": "/home/zperdev/repo/TokennSalenTools/wallet/contracts/ZperMultiSigWallet.sol",
  "compiler": {
    "name": "solc",
    "version": "0.4.23+commit.124ca40d.Emscripten.clang"
  },
  "schemaVersion": "2.0.0",
  "updatedAt": "2018-05-14T06:28:19.396Z"
}